{
  "_format": "hh-sol-artifact-1",
  "contractName": "HealthDetails",
  "sourceName": "contracts/Record.sol",
  "abi": [
    {
      "inputs": [],
      "stateMutability": "nonpayable",
      "type": "constructor"
    },
    {
      "inputs": [],
      "name": "d_Cnt",
      "outputs": [
        {
          "internalType": "uint256",
          "name": "",
          "type": "uint256"
        }
      ],
      "stateMutability": "view",
      "type": "function"
    },
    {
      "inputs": [
        {
          "internalType": "uint256",
          "name": "",
          "type": "uint256"
        }
      ],
      "name": "d_List",
      "outputs": [
        {
          "internalType": "address",
          "name": "",
          "type": "address"
        }
      ],
      "stateMutability": "view",
      "type": "function"
    },
    {
      "inputs": [
        {
          "internalType": "string",
          "name": "_d_id",
          "type": "string"
        },
        {
          "internalType": "string",
          "name": "_d_name",
          "type": "string"
        },
        {
          "internalType": "string",
          "name": "_d_sex",
          "type": "string"
        },
        {
          "internalType": "string",
          "name": "_d_phone",
          "type": "string"
        },
        {
          "internalType": "string",
          "name": "_d_birthDate",
          "type": "string"
        },
        {
          "internalType": "string",
          "name": "_d_qualification",
          "type": "string"
        }
      ],
      "name": "editDoctor",
      "outputs": [],
      "stateMutability": "nonpayable",
      "type": "function"
    },
    {
      "inputs": [
        {
          "internalType": "string",
          "name": "_p_id",
          "type": "string"
        },
        {
          "internalType": "string",
          "name": "_p_name",
          "type": "string"
        },
        {
          "internalType": "string",
          "name": "_p_homeaddr",
          "type": "string"
        },
        {
          "internalType": "string",
          "name": "_p_sex",
          "type": "string"
        },
        {
          "internalType": "string",
          "name": "_p_phone",
          "type": "string"
        },
        {
          "internalType": "string",
          "name": "_p_birthDate",
          "type": "string"
        },
        {
          "internalType": "string",
          "name": "_p_ht",
          "type": "string"
        },
        {
          "internalType": "string",
          "name": "_p_wt",
          "type": "string"
        },
        {
          "internalType": "string",
          "name": "_p_bloodgroup",
          "type": "string"
        }
      ],
      "name": "editPatient",
      "outputs": [],
      "stateMutability": "nonpayable",
      "type": "function"
    },
    {
      "inputs": [
        {
          "internalType": "address",
          "name": "_address",
          "type": "address"
        }
      ],
      "name": "findDoctor",
      "outputs": [
        {
          "internalType": "string",
          "name": "",
          "type": "string"
        },
        {
          "internalType": "string",
          "name": "",
          "type": "string"
        },
        {
          "internalType": "string",
          "name": "",
          "type": "string"
        },
        {
          "internalType": "string",
          "name": "",
          "type": "string"
        },
        {
          "internalType": "string",
          "name": "",
          "type": "string"
        },
        {
          "internalType": "string",
          "name": "",
          "type": "string"
        }
      ],
      "stateMutability": "view",
      "type": "function"
    },
    {
      "inputs": [
        {
          "internalType": "address",
          "name": "_address",
          "type": "address"
        }
      ],
      "name": "findDoctorRecordDate",
      "outputs": [
        {
          "internalType": "uint256",
          "name": "",
          "type": "uint256"
        }
      ],
      "stateMutability": "view",
      "type": "function"
    },
    {
      "inputs": [
        {
          "internalType": "address",
          "name": "_address",
          "type": "address"
        }
      ],
      "name": "findPatient",
      "outputs": [
        {
          "internalType": "string",
          "name": "s1",
          "type": "string"
        },
        {
          "internalType": "string",
          "name": "s2",
          "type": "string"
        },
        {
          "internalType": "string",
          "name": "s3",
          "type": "string"
        },
        {
          "internalType": "string",
          "name": "s4",
          "type": "string"
        },
        {
          "internalType": "string",
          "name": "s5",
          "type": "string"
        },
        {
          "internalType": "string",
          "name": "s6",
          "type": "string"
        },
        {
          "internalType": "string",
          "name": "s7",
          "type": "string"
        },
        {
          "internalType": "string",
          "name": "s8",
          "type": "string"
        },
        {
          "internalType": "string",
          "name": "s9",
          "type": "string"
        }
      ],
      "stateMutability": "view",
      "type": "function"
    },
    {
      "inputs": [
        {
          "internalType": "address",
          "name": "_address",
          "type": "address"
        }
      ],
      "name": "findPatientRecordDate",
      "outputs": [
        {
          "internalType": "uint256",
          "name": "",
          "type": "uint256"
        }
      ],
      "stateMutability": "view",
      "type": "function"
    },
    {
      "inputs": [
        {
          "internalType": "address",
          "name": "_address",
          "type": "address"
        }
      ],
      "name": "grant_Access",
      "outputs": [
        {
          "internalType": "bool",
          "name": "x",
          "type": "bool"
        }
      ],
      "stateMutability": "nonpayable",
      "type": "function"
    },
    {
      "inputs": [],
      "name": "no_of_Doctors",
      "outputs": [
        {
          "internalType": "uint256",
          "name": "",
          "type": "uint256"
        }
      ],
      "stateMutability": "view",
      "type": "function"
    },
    {
      "inputs": [],
      "name": "no_of_Patients",
      "outputs": [
        {
          "internalType": "uint256",
          "name": "",
          "type": "uint256"
        }
      ],
      "stateMutability": "view",
      "type": "function"
    },
    {
      "inputs": [],
      "name": "no_of_Perm_Granted",
      "outputs": [
        {
          "internalType": "uint256",
          "name": "",
          "type": "uint256"
        }
      ],
      "stateMutability": "view",
      "type": "function"
    },
    {
      "inputs": [],
      "name": "owner",
      "outputs": [
        {
          "internalType": "address",
          "name": "",
          "type": "address"
        }
      ],
      "stateMutability": "view",
      "type": "function"
    },
    {
      "inputs": [],
      "name": "p_Cnt",
      "outputs": [
        {
          "internalType": "uint256",
          "name": "",
          "type": "uint256"
        }
      ],
      "stateMutability": "view",
      "type": "function"
    },
    {
      "inputs": [
        {
          "internalType": "uint256",
          "name": "",
          "type": "uint256"
        }
      ],
      "name": "p_List",
      "outputs": [
        {
          "internalType": "address",
          "name": "",
          "type": "address"
        }
      ],
      "stateMutability": "view",
      "type": "function"
    },
    {
      "inputs": [],
      "name": "perm_Granted_Cnt",
      "outputs": [
        {
          "internalType": "uint256",
          "name": "",
          "type": "uint256"
        }
      ],
      "stateMutability": "view",
      "type": "function"
    },
    {
      "inputs": [
        {
          "internalType": "address",
          "name": "_address",
          "type": "address"
        }
      ],
      "name": "revoke_Access",
      "outputs": [
        {
          "internalType": "bool",
          "name": "x",
          "type": "bool"
        }
      ],
      "stateMutability": "nonpayable",
      "type": "function"
    },
    {
      "inputs": [
        {
          "internalType": "string",
          "name": "_d_id",
          "type": "string"
        },
        {
          "internalType": "string",
          "name": "_d_name",
          "type": "string"
        },
        {
          "internalType": "string",
          "name": "_d_sex",
          "type": "string"
        },
        {
          "internalType": "string",
          "name": "_d_phone",
          "type": "string"
        },
        {
          "internalType": "string",
          "name": "_d_birthDate",
          "type": "string"
        },
        {
          "internalType": "string",
          "name": "_d_qualification",
          "type": "string"
        }
      ],
      "name": "setDoctor",
      "outputs": [],
      "stateMutability": "nonpayable",
      "type": "function"
    },
    {
      "inputs": [
        {
          "internalType": "string",
          "name": "_p_id",
          "type": "string"
        },
        {
          "internalType": "string",
          "name": "_p_name",
          "type": "string"
        },
        {
          "internalType": "string",
          "name": "_p_homeaddr",
          "type": "string"
        },
        {
          "internalType": "string",
          "name": "_p_sex",
          "type": "string"
        },
        {
          "internalType": "string",
          "name": "_p_phone",
          "type": "string"
        },
        {
          "internalType": "string",
          "name": "_p_birthDate",
          "type": "string"
        },
        {
          "internalType": "string",
          "name": "_p_ht",
          "type": "string"
        },
        {
          "internalType": "string",
          "name": "_p_wt",
          "type": "string"
        },
        {
          "internalType": "string",
          "name": "_p_bloodgroup",
          "type": "string"
        }
      ],
      "name": "setPatient",
      "outputs": [],
      "stateMutability": "nonpayable",
      "type": "function"
    },
    {
      "inputs": [],
      "name": "showDoctorsList",
      "outputs": [
        {
          "internalType": "address[]",
          "name": "",
          "type": "address[]"
        }
      ],
      "stateMutability": "view",
      "type": "function"
    },
    {
      "inputs": [],
      "name": "showPatientsList",
      "outputs": [
        {
          "internalType": "address[]",
          "name": "",
          "type": "address[]"
        }
      ],
      "stateMutability": "view",
      "type": "function"
    }
  ],
  "bytecode": "0x6080604052600060085560006009556000600a5534801561001f57600080fd5b50336000806101000a81548173ffffffffffffffffffffffffffffffffffffffff021916908373ffffffffffffffffffffffffffffffffffffffff160217905550613e888061006f6000396000f3fe608060405234801561001057600080fd5b50600436106101375760003560e01c8063a1fe834d116100b8578063cdae2bb91161007c578063cdae2bb91461035d578063d015bd6b1461037b578063d27cf568146103ab578063d94da7ae146103db578063e8410cd8146103f9578063e8d611f91461042957610137565b8063a1fe834d146102b4578063a47d267b146102d2578063b198de6514610307578063b279ca0c14610323578063c357bf6b1461034157610137565b806335707b53116100ff57806335707b53146101f457806341f97c09146102125780638da5cb5b1461022e57806392a658721461024c5780639370d88f1461028457610137565b806313623c641461013c57806315c847f81461015a5780631656ba481461017857806323a2ba5b146101a8578063242505b5146101c4575b600080fd5b610144610447565b6040516101519190613293565b60405180910390f35b61016261044d565b60405161016f9190613293565b60405180910390f35b610192600480360381019061018d9190613320565b610453565b60405161019f9190613368565b60405180910390f35b6101c260048036038101906101bd91906134c9565b61050b565b005b6101de60048036038101906101d991906136bb565b6108d1565b6040516101eb91906136f7565b60405180910390f35b6101fc610910565b6040516102099190613293565b60405180910390f35b61022c60048036038101906102279190613712565b61091a565b005b610236610be5565b60405161024391906136f7565b60405180910390f35b61026660048036038101906102619190613320565b610c09565b60405161027b999897969594939291906138c6565b60405180910390f35b61029e60048036038101906102999190613320565b6112c9565b6040516102ab9190613293565b60405180910390f35b6102bc6118a9565b6040516102c99190613293565b60405180910390f35b6102ec60048036038101906102e79190613320565b6118b3565b6040516102fe96959493929190613992565b60405180910390f35b610321600480360381019061031c9190613712565b611d61565b005b61032b612361565b6040516103389190613adb565b60405180910390f35b61035b600480360381019061035691906134c9565b6123ef565b005b610365612c0a565b6040516103729190613293565b60405180910390f35b610395600480360381019061039091906136bb565b612c14565b6040516103a291906136f7565b60405180910390f35b6103c560048036038101906103c09190613320565b612c53565b6040516103d29190613368565b60405180910390f35b6103e3612cf2565b6040516103f09190613293565b60405180910390f35b610413600480360381019061040e9190613320565b612cf8565b6040516104209190613293565b60405180910390f35b610431613121565b60405161043e9190613adb565b60405180910390f35b600a5481565b60095481565b6000600a600081548092919061046890613b2c565b91905055506001600560003373ffffffffffffffffffffffffffffffffffffffff1673ffffffffffffffffffffffffffffffffffffffff16815260200190815260200160002060008473ffffffffffffffffffffffffffffffffffffffff1673ffffffffffffffffffffffffffffffffffffffff16815260200190815260200160002060006101000a81548160ff02191690831515021790555060019050919050565b600660003373ffffffffffffffffffffffffffffffffffffffff1673ffffffffffffffffffffffffffffffffffffffff16815260200190815260200160002060009054906101000a900460ff161561056257600080fd5b61056a6131af565b898160000181905250888160200181905250878160400181905250868160600181905250858160800181905250848160a00181905250838160c00181905250828160e00181905250818161010001819052503381610120019073ffffffffffffffffffffffffffffffffffffffff16908173ffffffffffffffffffffffffffffffffffffffff168152505042816101400181815250506001339080600181540180825580915050600190039060005260206000200160009091909190916101000a81548173ffffffffffffffffffffffffffffffffffffffff021916908373ffffffffffffffffffffffffffffffffffffffff1602179055506001600660003373ffffffffffffffffffffffffffffffffffffffff1673ffffffffffffffffffffffffffffffffffffffff16815260200190815260200160002060006101000a81548160ff0219169083151502179055506001600560003373ffffffffffffffffffffffffffffffffffffffff1673ffffffffffffffffffffffffffffffffffffffff16815260200190815260200160002060003373ffffffffffffffffffffffffffffffffffffffff1673ffffffffffffffffffffffffffffffffffffffff16815260200190815260200160002060006101000a81548160ff0219169083151502179055506008600081548092919061076390613b2c565b919050555080600360003373ffffffffffffffffffffffffffffffffffffffff1673ffffffffffffffffffffffffffffffffffffffff16815260200190815260200160002060008201518160000190816107bd9190613d80565b5060208201518160010190816107d39190613d80565b5060408201518160020190816107e99190613d80565b5060608201518160030190816107ff9190613d80565b5060808201518160040190816108159190613d80565b5060a082015181600501908161082b9190613d80565b5060c08201518160060190816108419190613d80565b5060e08201518160070190816108579190613d80565b5061010082015181600801908161086e9190613d80565b506101208201518160090160006101000a81548173ffffffffffffffffffffffffffffffffffffffff021916908373ffffffffffffffffffffffffffffffffffffffff16021790555061014082015181600a015590505050505050505050505050565b600181815481106108e157600080fd5b906000526020600020016000915054906101000a900473ffffffffffffffffffffffffffffffffffffffff1681565b6000600a54905090565b600760003373ffffffffffffffffffffffffffffffffffffffff1673ffffffffffffffffffffffffffffffffffffffff16815260200190815260200160002060009054906101000a900460ff161561097157600080fd5b61097961321f565b868160000181905250858160200181905250848160400181905250838160600181905250828160800181905250818160a00181905250338160c0019073ffffffffffffffffffffffffffffffffffffffff16908173ffffffffffffffffffffffffffffffffffffffff1681525050428160e00181815250506002339080600181540180825580915050600190039060005260206000200160009091909190916101000a81548173ffffffffffffffffffffffffffffffffffffffff021916908373ffffffffffffffffffffffffffffffffffffffff1602179055506001600760003373ffffffffffffffffffffffffffffffffffffffff1673ffffffffffffffffffffffffffffffffffffffff16815260200190815260200160002060006101000a81548160ff02191690831515021790555060096000815480929190610abf90613b2c565b919050555080600460003373ffffffffffffffffffffffffffffffffffffffff1673ffffffffffffffffffffffffffffffffffffffff1681526020019081526020016000206000820151816000019081610b199190613d80565b506020820151816001019081610b2f9190613d80565b506040820151816002019081610b459190613d80565b506060820151816003019081610b5b9190613d80565b506080820151816004019081610b719190613d80565b5060a0820151816005019081610b879190613d80565b5060c08201518160060160006101000a81548173ffffffffffffffffffffffffffffffffffffffff021916908373ffffffffffffffffffffffffffffffffffffffff16021790555060e0820151816007015590505050505050505050565b60008054906101000a900473ffffffffffffffffffffffffffffffffffffffff1681565b6060806060806060806060806060600560008b73ffffffffffffffffffffffffffffffffffffffff1673ffffffffffffffffffffffffffffffffffffffff16815260200190815260200160002060003373ffffffffffffffffffffffffffffffffffffffff1673ffffffffffffffffffffffffffffffffffffffff16815260200190815260200160002060009054906101000a900460ff16610caa57600080fd5b6000600360008c73ffffffffffffffffffffffffffffffffffffffff1673ffffffffffffffffffffffffffffffffffffffff16815260200190815260200160002060405180610160016040529081600082018054610d0790613ba3565b80601f0160208091040260200160405190810160405280929190818152602001828054610d3390613ba3565b8015610d805780601f10610d5557610100808354040283529160200191610d80565b820191906000526020600020905b815481529060010190602001808311610d6357829003601f168201915b50505050508152602001600182018054610d9990613ba3565b80601f0160208091040260200160405190810160405280929190818152602001828054610dc590613ba3565b8015610e125780601f10610de757610100808354040283529160200191610e12565b820191906000526020600020905b815481529060010190602001808311610df557829003601f168201915b50505050508152602001600282018054610e2b90613ba3565b80601f0160208091040260200160405190810160405280929190818152602001828054610e5790613ba3565b8015610ea45780601f10610e7957610100808354040283529160200191610ea4565b820191906000526020600020905b815481529060010190602001808311610e8757829003601f168201915b50505050508152602001600382018054610ebd90613ba3565b80601f0160208091040260200160405190810160405280929190818152602001828054610ee990613ba3565b8015610f365780601f10610f0b57610100808354040283529160200191610f36565b820191906000526020600020905b815481529060010190602001808311610f1957829003601f168201915b50505050508152602001600482018054610f4f90613ba3565b80601f0160208091040260200160405190810160405280929190818152602001828054610f7b90613ba3565b8015610fc85780601f10610f9d57610100808354040283529160200191610fc8565b820191906000526020600020905b815481529060010190602001808311610fab57829003601f168201915b50505050508152602001600582018054610fe190613ba3565b80601f016020809104026020016040519081016040528092919081815260200182805461100d90613ba3565b801561105a5780601f1061102f5761010080835404028352916020019161105a565b820191906000526020600020905b81548152906001019060200180831161103d57829003601f168201915b5050505050815260200160068201805461107390613ba3565b80601f016020809104026020016040519081016040528092919081815260200182805461109f90613ba3565b80156110ec5780601f106110c1576101008083540402835291602001916110ec565b820191906000526020600020905b8154815290600101906020018083116110cf57829003601f168201915b5050505050815260200160078201805461110590613ba3565b80601f016020809104026020016040519081016040528092919081815260200182805461113190613ba3565b801561117e5780601f106111535761010080835404028352916020019161117e565b820191906000526020600020905b81548152906001019060200180831161116157829003601f168201915b5050505050815260200160088201805461119790613ba3565b80601f01602080910402602001604051908101604052809291908181526020018280546111c390613ba3565b80156112105780601f106111e557610100808354040283529160200191611210565b820191906000526020600020905b8154815290600101906020018083116111f357829003601f168201915b505050505081526020016009820160009054906101000a900473ffffffffffffffffffffffffffffffffffffffff1673ffffffffffffffffffffffffffffffffffffffff1673ffffffffffffffffffffffffffffffffffffffff168152602001600a820154815250509050806000015181602001518260400151836060015184608001518560a001518660c001518760e00151886101000151995099509950995099509950995099509950509193959799909294969850565b600080600360008473ffffffffffffffffffffffffffffffffffffffff1673ffffffffffffffffffffffffffffffffffffffff1681526020019081526020016000206040518061016001604052908160008201805461132790613ba3565b80601f016020809104026020016040519081016040528092919081815260200182805461135390613ba3565b80156113a05780601f10611375576101008083540402835291602001916113a0565b820191906000526020600020905b81548152906001019060200180831161138357829003601f168201915b505050505081526020016001820180546113b990613ba3565b80601f01602080910402602001604051908101604052809291908181526020018280546113e590613ba3565b80156114325780601f1061140757610100808354040283529160200191611432565b820191906000526020600020905b81548152906001019060200180831161141557829003601f168201915b5050505050815260200160028201805461144b90613ba3565b80601f016020809104026020016040519081016040528092919081815260200182805461147790613ba3565b80156114c45780601f10611499576101008083540402835291602001916114c4565b820191906000526020600020905b8154815290600101906020018083116114a757829003601f168201915b505050505081526020016003820180546114dd90613ba3565b80601f016020809104026020016040519081016040528092919081815260200182805461150990613ba3565b80156115565780601f1061152b57610100808354040283529160200191611556565b820191906000526020600020905b81548152906001019060200180831161153957829003601f168201915b5050505050815260200160048201805461156f90613ba3565b80601f016020809104026020016040519081016040528092919081815260200182805461159b90613ba3565b80156115e85780601f106115bd576101008083540402835291602001916115e8565b820191906000526020600020905b8154815290600101906020018083116115cb57829003601f168201915b5050505050815260200160058201805461160190613ba3565b80601f016020809104026020016040519081016040528092919081815260200182805461162d90613ba3565b801561167a5780601f1061164f5761010080835404028352916020019161167a565b820191906000526020600020905b81548152906001019060200180831161165d57829003601f168201915b5050505050815260200160068201805461169390613ba3565b80601f01602080910402602001604051908101604052809291908181526020018280546116bf90613ba3565b801561170c5780601f106116e15761010080835404028352916020019161170c565b820191906000526020600020905b8154815290600101906020018083116116ef57829003601f168201915b5050505050815260200160078201805461172590613ba3565b80601f016020809104026020016040519081016040528092919081815260200182805461175190613ba3565b801561179e5780601f106117735761010080835404028352916020019161179e565b820191906000526020600020905b81548152906001019060200180831161178157829003601f168201915b505050505081526020016008820180546117b790613ba3565b80601f01602080910402602001604051908101604052809291908181526020018280546117e390613ba3565b80156118305780601f1061180557610100808354040283529160200191611830565b820191906000526020600020905b81548152906001019060200180831161181357829003601f168201915b505050505081526020016009820160009054906101000a900473ffffffffffffffffffffffffffffffffffffffff1673ffffffffffffffffffffffffffffffffffffffff1673ffffffffffffffffffffffffffffffffffffffff168152602001600a820154815250509050806101400151915050919050565b6000600854905090565b606080606080606080600760008873ffffffffffffffffffffffffffffffffffffffff1673ffffffffffffffffffffffffffffffffffffffff16815260200190815260200160002060009054906101000a900460ff1661191257600080fd5b6000600460008973ffffffffffffffffffffffffffffffffffffffff1673ffffffffffffffffffffffffffffffffffffffff1681526020019081526020016000206040518061010001604052908160008201805461196f90613ba3565b80601f016020809104026020016040519081016040528092919081815260200182805461199b90613ba3565b80156119e85780601f106119bd576101008083540402835291602001916119e8565b820191906000526020600020905b8154815290600101906020018083116119cb57829003601f168201915b50505050508152602001600182018054611a0190613ba3565b80601f0160208091040260200160405190810160405280929190818152602001828054611a2d90613ba3565b8015611a7a5780601f10611a4f57610100808354040283529160200191611a7a565b820191906000526020600020905b815481529060010190602001808311611a5d57829003601f168201915b50505050508152602001600282018054611a9390613ba3565b80601f0160208091040260200160405190810160405280929190818152602001828054611abf90613ba3565b8015611b0c5780601f10611ae157610100808354040283529160200191611b0c565b820191906000526020600020905b815481529060010190602001808311611aef57829003601f168201915b50505050508152602001600382018054611b2590613ba3565b80601f0160208091040260200160405190810160405280929190818152602001828054611b5190613ba3565b8015611b9e5780601f10611b7357610100808354040283529160200191611b9e565b820191906000526020600020905b815481529060010190602001808311611b8157829003601f168201915b50505050508152602001600482018054611bb790613ba3565b80601f0160208091040260200160405190810160405280929190818152602001828054611be390613ba3565b8015611c305780601f10611c0557610100808354040283529160200191611c30565b820191906000526020600020905b815481529060010190602001808311611c1357829003601f168201915b50505050508152602001600582018054611c4990613ba3565b80601f0160208091040260200160405190810160405280929190818152602001828054611c7590613ba3565b8015611cc25780601f10611c9757610100808354040283529160200191611cc2565b820191906000526020600020905b815481529060010190602001808311611ca557829003601f168201915b505050505081526020016006820160009054906101000a900473ffffffffffffffffffffffffffffffffffffffff1673ffffffffffffffffffffffffffffffffffffffff1673ffffffffffffffffffffffffffffffffffffffff1681526020016007820154815250509050806000015181602001518260400151836060015184608001518560a001519650965096509650965096505091939550919395565b600760003373ffffffffffffffffffffffffffffffffffffffff1673ffffffffffffffffffffffffffffffffffffffff16815260200190815260200160002060009054906101000a900460ff16611db757600080fd5b6000600460003373ffffffffffffffffffffffffffffffffffffffff1673ffffffffffffffffffffffffffffffffffffffff16815260200190815260200160002060405180610100016040529081600082018054611e1490613ba3565b80601f0160208091040260200160405190810160405280929190818152602001828054611e4090613ba3565b8015611e8d5780601f10611e6257610100808354040283529160200191611e8d565b820191906000526020600020905b815481529060010190602001808311611e7057829003601f168201915b50505050508152602001600182018054611ea690613ba3565b80601f0160208091040260200160405190810160405280929190818152602001828054611ed290613ba3565b8015611f1f5780601f10611ef457610100808354040283529160200191611f1f565b820191906000526020600020905b815481529060010190602001808311611f0257829003601f168201915b50505050508152602001600282018054611f3890613ba3565b80601f0160208091040260200160405190810160405280929190818152602001828054611f6490613ba3565b8015611fb15780601f10611f8657610100808354040283529160200191611fb1565b820191906000526020600020905b815481529060010190602001808311611f9457829003601f168201915b50505050508152602001600382018054611fca90613ba3565b80601f0160208091040260200160405190810160405280929190818152602001828054611ff690613ba3565b80156120435780601f1061201857610100808354040283529160200191612043565b820191906000526020600020905b81548152906001019060200180831161202657829003601f168201915b5050505050815260200160048201805461205c90613ba3565b80601f016020809104026020016040519081016040528092919081815260200182805461208890613ba3565b80156120d55780601f106120aa576101008083540402835291602001916120d5565b820191906000526020600020905b8154815290600101906020018083116120b857829003601f168201915b505050505081526020016005820180546120ee90613ba3565b80601f016020809104026020016040519081016040528092919081815260200182805461211a90613ba3565b80156121675780601f1061213c57610100808354040283529160200191612167565b820191906000526020600020905b81548152906001019060200180831161214a57829003601f168201915b505050505081526020016006820160009054906101000a900473ffffffffffffffffffffffffffffffffffffffff1673ffffffffffffffffffffffffffffffffffffffff1673ffffffffffffffffffffffffffffffffffffffff1681526020016007820154815250509050868160000181905250858160200181905250848160400181905250838160600181905250828160800181905250818160a00181905250338160c0019073ffffffffffffffffffffffffffffffffffffffff16908173ffffffffffffffffffffffffffffffffffffffff168152505080600460003373ffffffffffffffffffffffffffffffffffffffff1673ffffffffffffffffffffffffffffffffffffffff16815260200190815260200160002060008201518160000190816122959190613d80565b5060208201518160010190816122ab9190613d80565b5060408201518160020190816122c19190613d80565b5060608201518160030190816122d79190613d80565b5060808201518160040190816122ed9190613d80565b5060a08201518160050190816123039190613d80565b5060c08201518160060160006101000a81548173ffffffffffffffffffffffffffffffffffffffff021916908373ffffffffffffffffffffffffffffffffffffffff16021790555060e0820151816007015590505050505050505050565b606060018054806020026020016040519081016040528092919081815260200182805480156123e557602002820191906000526020600020905b8160009054906101000a900473ffffffffffffffffffffffffffffffffffffffff1673ffffffffffffffffffffffffffffffffffffffff168152602001906001019080831161239b575b5050505050905090565b600660003373ffffffffffffffffffffffffffffffffffffffff1673ffffffffffffffffffffffffffffffffffffffff16815260200190815260200160002060009054906101000a900460ff1661244557600080fd5b6000600360003373ffffffffffffffffffffffffffffffffffffffff1673ffffffffffffffffffffffffffffffffffffffff168152602001908152602001600020604051806101600160405290816000820180546124a290613ba3565b80601f01602080910402602001604051908101604052809291908181526020018280546124ce90613ba3565b801561251b5780601f106124f05761010080835404028352916020019161251b565b820191906000526020600020905b8154815290600101906020018083116124fe57829003601f168201915b5050505050815260200160018201805461253490613ba3565b80601f016020809104026020016040519081016040528092919081815260200182805461256090613ba3565b80156125ad5780601f10612582576101008083540402835291602001916125ad565b820191906000526020600020905b81548152906001019060200180831161259057829003601f168201915b505050505081526020016002820180546125c690613ba3565b80601f01602080910402602001604051908101604052809291908181526020018280546125f290613ba3565b801561263f5780601f106126145761010080835404028352916020019161263f565b820191906000526020600020905b81548152906001019060200180831161262257829003601f168201915b5050505050815260200160038201805461265890613ba3565b80601f016020809104026020016040519081016040528092919081815260200182805461268490613ba3565b80156126d15780601f106126a6576101008083540402835291602001916126d1565b820191906000526020600020905b8154815290600101906020018083116126b457829003601f168201915b505050505081526020016004820180546126ea90613ba3565b80601f016020809104026020016040519081016040528092919081815260200182805461271690613ba3565b80156127635780601f1061273857610100808354040283529160200191612763565b820191906000526020600020905b81548152906001019060200180831161274657829003601f168201915b5050505050815260200160058201805461277c90613ba3565b80601f01602080910402602001604051908101604052809291908181526020018280546127a890613ba3565b80156127f55780601f106127ca576101008083540402835291602001916127f5565b820191906000526020600020905b8154815290600101906020018083116127d857829003601f168201915b5050505050815260200160068201805461280e90613ba3565b80601f016020809104026020016040519081016040528092919081815260200182805461283a90613ba3565b80156128875780601f1061285c57610100808354040283529160200191612887565b820191906000526020600020905b81548152906001019060200180831161286a57829003601f168201915b505050505081526020016007820180546128a090613ba3565b80601f01602080910402602001604051908101604052809291908181526020018280546128cc90613ba3565b80156129195780601f106128ee57610100808354040283529160200191612919565b820191906000526020600020905b8154815290600101906020018083116128fc57829003601f168201915b5050505050815260200160088201805461293290613ba3565b80601f016020809104026020016040519081016040528092919081815260200182805461295e90613ba3565b80156129ab5780601f10612980576101008083540402835291602001916129ab565b820191906000526020600020905b81548152906001019060200180831161298e57829003601f168201915b505050505081526020016009820160009054906101000a900473ffffffffffffffffffffffffffffffffffffffff1673ffffffffffffffffffffffffffffffffffffffff1673ffffffffffffffffffffffffffffffffffffffff168152602001600a820154815250509050898160000181905250888160200181905250878160400181905250868160600181905250858160800181905250848160a00181905250838160c00181905250828160e00181905250818161010001819052503381610120019073ffffffffffffffffffffffffffffffffffffffff16908173ffffffffffffffffffffffffffffffffffffffff168152505080600360003373ffffffffffffffffffffffffffffffffffffffff1673ffffffffffffffffffffffffffffffffffffffff1681526020019081526020016000206000820151816000019081612af69190613d80565b506020820151816001019081612b0c9190613d80565b506040820151816002019081612b229190613d80565b506060820151816003019081612b389190613d80565b506080820151816004019081612b4e9190613d80565b5060a0820151816005019081612b649190613d80565b5060c0820151816006019081612b7a9190613d80565b5060e0820151816007019081612b909190613d80565b50610100820151816008019081612ba79190613d80565b506101208201518160090160006101000a81548173ffffffffffffffffffffffffffffffffffffffff021916908373ffffffffffffffffffffffffffffffffffffffff16021790555061014082015181600a015590505050505050505050505050565b6000600954905090565b60028181548110612c2457600080fd5b906000526020600020016000915054906101000a900473ffffffffffffffffffffffffffffffffffffffff1681565b600080600560003373ffffffffffffffffffffffffffffffffffffffff1673ffffffffffffffffffffffffffffffffffffffff16815260200190815260200160002060008473ffffffffffffffffffffffffffffffffffffffff1673ffffffffffffffffffffffffffffffffffffffff16815260200190815260200160002060006101000a81548160ff02191690831515021790555060019050919050565b60085481565b600080600460008473ffffffffffffffffffffffffffffffffffffffff1673ffffffffffffffffffffffffffffffffffffffff16815260200190815260200160002060405180610100016040529081600082018054612d5690613ba3565b80601f0160208091040260200160405190810160405280929190818152602001828054612d8290613ba3565b8015612dcf5780601f10612da457610100808354040283529160200191612dcf565b820191906000526020600020905b815481529060010190602001808311612db257829003601f168201915b50505050508152602001600182018054612de890613ba3565b80601f0160208091040260200160405190810160405280929190818152602001828054612e1490613ba3565b8015612e615780601f10612e3657610100808354040283529160200191612e61565b820191906000526020600020905b815481529060010190602001808311612e4457829003601f168201915b50505050508152602001600282018054612e7a90613ba3565b80601f0160208091040260200160405190810160405280929190818152602001828054612ea690613ba3565b8015612ef35780601f10612ec857610100808354040283529160200191612ef3565b820191906000526020600020905b815481529060010190602001808311612ed657829003601f168201915b50505050508152602001600382018054612f0c90613ba3565b80601f0160208091040260200160405190810160405280929190818152602001828054612f3890613ba3565b8015612f855780601f10612f5a57610100808354040283529160200191612f85565b820191906000526020600020905b815481529060010190602001808311612f6857829003601f168201915b50505050508152602001600482018054612f9e90613ba3565b80601f0160208091040260200160405190810160405280929190818152602001828054612fca90613ba3565b80156130175780601f10612fec57610100808354040283529160200191613017565b820191906000526020600020905b815481529060010190602001808311612ffa57829003601f168201915b5050505050815260200160058201805461303090613ba3565b80601f016020809104026020016040519081016040528092919081815260200182805461305c90613ba3565b80156130a95780601f1061307e576101008083540402835291602001916130a9565b820191906000526020600020905b81548152906001019060200180831161308c57829003601f168201915b505050505081526020016006820160009054906101000a900473ffffffffffffffffffffffffffffffffffffffff1673ffffffffffffffffffffffffffffffffffffffff1673ffffffffffffffffffffffffffffffffffffffff16815260200160078201548152505090508060e00151915050919050565b606060028054806020026020016040519081016040528092919081815260200182805480156131a557602002820191906000526020600020905b8160009054906101000a900473ffffffffffffffffffffffffffffffffffffffff1673ffffffffffffffffffffffffffffffffffffffff168152602001906001019080831161315b575b5050505050905090565b604051806101600160405280606081526020016060815260200160608152602001606081526020016060815260200160608152602001606081526020016060815260200160608152602001600073ffffffffffffffffffffffffffffffffffffffff168152602001600081525090565b604051806101000160405280606081526020016060815260200160608152602001606081526020016060815260200160608152602001600073ffffffffffffffffffffffffffffffffffffffff168152602001600081525090565b6000819050919050565b61328d8161327a565b82525050565b60006020820190506132a86000830184613284565b92915050565b6000604051905090565b600080fd5b600080fd5b600073ffffffffffffffffffffffffffffffffffffffff82169050919050565b60006132ed826132c2565b9050919050565b6132fd816132e2565b811461330857600080fd5b50565b60008135905061331a816132f4565b92915050565b600060208284031215613336576133356132b8565b5b60006133448482850161330b565b91505092915050565b60008115159050919050565b6133628161334d565b82525050565b600060208201905061337d6000830184613359565b92915050565b600080fd5b600080fd5b6000601f19601f8301169050919050565b7f4e487b7100000000000000000000000000000000000000000000000000000000600052604160045260246000fd5b6133d68261338d565b810181811067ffffffffffffffff821117156133f5576133f461339e565b5b80604052505050565b60006134086132ae565b905061341482826133cd565b919050565b600067ffffffffffffffff8211156134345761343361339e565b5b61343d8261338d565b9050602081019050919050565b82818337600083830152505050565b600061346c61346784613419565b6133fe565b90508281526020810184848401111561348857613487613388565b5b61349384828561344a565b509392505050565b600082601f8301126134b0576134af613383565b5b81356134c0848260208601613459565b91505092915050565b60008060008060008060008060006101208a8c0312156134ec576134eb6132b8565b5b60008a013567ffffffffffffffff81111561350a576135096132bd565b5b6135168c828d0161349b565b99505060208a013567ffffffffffffffff811115613537576135366132bd565b5b6135438c828d0161349b565b98505060408a013567ffffffffffffffff811115613564576135636132bd565b5b6135708c828d0161349b565b97505060608a013567ffffffffffffffff811115613591576135906132bd565b5b61359d8c828d0161349b565b96505060808a013567ffffffffffffffff8111156135be576135bd6132bd565b5b6135ca8c828d0161349b565b95505060a08a013567ffffffffffffffff8111156135eb576135ea6132bd565b5b6135f78c828d0161349b565b94505060c08a013567ffffffffffffffff811115613618576136176132bd565b5b6136248c828d0161349b565b93505060e08a013567ffffffffffffffff811115613645576136446132bd565b5b6136518c828d0161349b565b9250506101008a013567ffffffffffffffff811115613673576136726132bd565b5b61367f8c828d0161349b565b9150509295985092959850929598565b6136988161327a565b81146136a357600080fd5b50565b6000813590506136b58161368f565b92915050565b6000602082840312156136d1576136d06132b8565b5b60006136df848285016136a6565b91505092915050565b6136f1816132e2565b82525050565b600060208201905061370c60008301846136e8565b92915050565b60008060008060008060c0878903121561372f5761372e6132b8565b5b600087013567ffffffffffffffff81111561374d5761374c6132bd565b5b61375989828a0161349b565b965050602087013567ffffffffffffffff81111561377a576137796132bd565b5b61378689828a0161349b565b955050604087013567ffffffffffffffff8111156137a7576137a66132bd565b5b6137b389828a0161349b565b945050606087013567ffffffffffffffff8111156137d4576137d36132bd565b5b6137e089828a0161349b565b935050608087013567ffffffffffffffff811115613801576138006132bd565b5b61380d89828a0161349b565b92505060a087013567ffffffffffffffff81111561382e5761382d6132bd565b5b61383a89828a0161349b565b9150509295509295509295565b600081519050919050565b600082825260208201905092915050565b60005b83811015613881578082015181840152602081019050613866565b60008484015250505050565b600061389882613847565b6138a28185613852565b93506138b2818560208601613863565b6138bb8161338d565b840191505092915050565b60006101208201905081810360008301526138e1818c61388d565b905081810360208301526138f5818b61388d565b90508181036040830152613909818a61388d565b9050818103606083015261391d818961388d565b90508181036080830152613931818861388d565b905081810360a0830152613945818761388d565b905081810360c0830152613959818661388d565b905081810360e083015261396d818561388d565b9050818103610100830152613982818461388d565b90509a9950505050505050505050565b600060c08201905081810360008301526139ac818961388d565b905081810360208301526139c0818861388d565b905081810360408301526139d4818761388d565b905081810360608301526139e8818661388d565b905081810360808301526139fc818561388d565b905081810360a0830152613a10818461388d565b9050979650505050505050565b600081519050919050565b600082825260208201905092915050565b6000819050602082019050919050565b613a52816132e2565b82525050565b6000613a648383613a49565b60208301905092915050565b6000602082019050919050565b6000613a8882613a1d565b613a928185613a28565b9350613a9d83613a39565b8060005b83811015613ace578151613ab58882613a58565b9750613ac083613a70565b925050600181019050613aa1565b5085935050505092915050565b60006020820190508181036000830152613af58184613a7d565b905092915050565b7f4e487b7100000000000000000000000000000000000000000000000000000000600052601160045260246000fd5b6000613b378261327a565b91507fffffffffffffffffffffffffffffffffffffffffffffffffffffffffffffffff8203613b6957613b68613afd565b5b600182019050919050565b7f4e487b7100000000000000000000000000000000000000000000000000000000600052602260045260246000fd5b60006002820490506001821680613bbb57607f821691505b602082108103613bce57613bcd613b74565b5b50919050565b60008190508160005260206000209050919050565b60006020601f8301049050919050565b600082821b905092915050565b600060088302613c367fffffffffffffffffffffffffffffffffffffffffffffffffffffffffffffffff82613bf9565b613c408683613bf9565b95508019841693508086168417925050509392505050565b6000819050919050565b6000613c7d613c78613c738461327a565b613c58565b61327a565b9050919050565b6000819050919050565b613c9783613c62565b613cab613ca382613c84565b848454613c06565b825550505050565b600090565b613cc0613cb3565b613ccb818484613c8e565b505050565b5b81811015613cef57613ce4600082613cb8565b600181019050613cd1565b5050565b601f821115613d3457613d0581613bd4565b613d0e84613be9565b81016020851015613d1d578190505b613d31613d2985613be9565b830182613cd0565b50505b505050565b600082821c905092915050565b6000613d5760001984600802613d39565b1980831691505092915050565b6000613d708383613d46565b9150826002028217905092915050565b613d8982613847565b67ffffffffffffffff811115613da257613da161339e565b5b613dac8254613ba3565b613db7828285613cf3565b600060209050601f831160018114613dea5760008415613dd8578287015190505b613de28582613d64565b865550613e4a565b601f198416613df886613bd4565b60005b82811015613e2057848901518255600182019150602085019450602081019050613dfb565b86831015613e3d5784890151613e39601f891682613d46565b8355505b6001600288020188555050505b50505050505056fea2646970667358221220552b8655596a735611c6f78faf4288d55d577d4090e90d4cbce3f1a23579762564736f6c63430008130033",
  "linkReferences": {},
  "deployedLinkReferences": {}
}